{
  "contractName": "EEEE",
  "abi": [
    {
      "constant": true,
      "inputs": [],
      "name": "name",
      "outputs": [
        {
          "name": "",
          "type": "string"
        }
      ],
      "payable": false,
      "stateMutability": "view",
      "type": "function"
    },
    {
      "inputs": [
        {
          "name": "_name",
          "type": "string"
        }
      ],
      "payable": false,
      "stateMutability": "nonpayable",
      "type": "constructor"
    }
  ],
  "bytecode": "0x608060405234801561001057600080fd5b506040516102a43803806102a4833981018060405281019080805182019291905050508060009080519060200190610049929190610050565b50506100f5565b828054600181600116156101000203166002900490600052602060002090601f016020900481019282601f1061009157805160ff19168380011785556100bf565b828001600101855582156100bf579182015b828111156100be5782518255916020019190600101906100a3565b5b5090506100cc91906100d0565b5090565b6100f291905b808211156100ee5760008160009055506001016100d6565b5090565b90565b6101a0806101046000396000f300608060405260043610610041576000357c0100000000000000000000000000000000000000000000000000000000900463ffffffff16806306fdde0314610046575b600080fd5b34801561005257600080fd5b5061005b6100d6565b6040518080602001828103825283818151815260200191508051906020019080838360005b8381101561009b578082015181840152602081019050610080565b50505050905090810190601f1680156100c85780820380516001836020036101000a031916815260200191505b509250505060405180910390f35b60008054600181600116156101000203166002900480601f01602080910402602001604051908101604052809291908181526020018280546001816001161561010002031660029004801561016c5780601f106101415761010080835404028352916020019161016c565b820191906000526020600020905b81548152906001019060200180831161014f57829003601f168201915b5050505050815600a165627a7a723058203bd5f541681e7d4f92d0d8a1a372b2a9929c6a6585869e0fd3fc33326657aad90029",
  "source": "// pragma solidity ^0.5.0;\n\n// import \"openzeppelin-solidity/contracts/token/ERC20/ERC20.sol\";\n// import \"openzeppelin-solidity/contracts/token/ERC20/ERC20Detailed.sol\";\n\n// contract ERC20Token is ERC20, ERC20Detailed {\n    \n//     uint private INITIAL_SUPPLY = 1000000000000000000000000000000000000000000000000000000000e18;\n    \n//     constructor () public\n//     ERC20Detailed(\"ERC20Token\", \"ERC20\", 18)\n//     {\n//         _mint(msg.sender, INITIAL_SUPPLY);\n//     }\n// }\n\npragma solidity ^0.4.17;\n\n\ncontract EEEE {\n    \n    string public name;\n\n    function EEEE(string _name){\n        name = _name;\n    }\n}",
  "sourcePath": "/Volumes/work/blockchains/ETH/eth-geth-dev/truffle/contracts/ERC20Token.sol",
  "compiler": {
    "name": "solc",
    "version": "0.4.24+commit.e67f0147.Linux.g++"
  },
  "schemaVersion": "3.0.6",
  "updatedAt": "2019-06-20T10:10:54.419Z",
  "devdoc": {
    "methods": {}
  },
  "userdoc": {
    "methods": {}
  }
}