{
  "contractName": "TetherToken",
  "abi": [
    {
      "constant": true,
      "inputs": [],
      "name": "name",
      "outputs": [
        {
          "name": "",
          "type": "string"
        }
      ],
      "payable": false,
      "stateMutability": "view",
      "type": "function",
      "signature": "0x06fdde03"
    },
    {
      "constant": true,
      "inputs": [],
      "name": "deprecated",
      "outputs": [
        {
          "name": "",
          "type": "bool"
        }
      ],
      "payable": false,
      "stateMutability": "view",
      "type": "function",
      "signature": "0x0e136b19"
    },
    {
      "constant": false,
      "inputs": [
        {
          "name": "_evilUser",
          "type": "address"
        }
      ],
      "name": "addBlackList",
      "outputs": [],
      "payable": false,
      "stateMutability": "nonpayable",
      "type": "function",
      "signature": "0x0ecb93c0"
    },
    {
      "constant": true,
      "inputs": [],
      "name": "upgradedAddress",
      "outputs": [
        {
          "name": "",
          "type": "address"
        }
      ],
      "payable": false,
      "stateMutability": "view",
      "type": "function",
      "signature": "0x26976e3f"
    },
    {
      "constant": true,
      "inputs": [
        {
          "name": "",
          "type": "address"
        }
      ],
      "name": "balances",
      "outputs": [
        {
          "name": "",
          "type": "uint256"
        }
      ],
      "payable": false,
      "stateMutability": "view",
      "type": "function",
      "signature": "0x27e235e3"
    },
    {
      "constant": true,
      "inputs": [],
      "name": "decimals",
      "outputs": [
        {
          "name": "",
          "type": "uint256"
        }
      ],
      "payable": false,
      "stateMutability": "view",
      "type": "function",
      "signature": "0x313ce567"
    },
    {
      "constant": true,
      "inputs": [],
      "name": "maximumFee",
      "outputs": [
        {
          "name": "",
          "type": "uint256"
        }
      ],
      "payable": false,
      "stateMutability": "view",
      "type": "function",
      "signature": "0x35390714"
    },
    {
      "constant": true,
      "inputs": [],
      "name": "_totalSupply",
      "outputs": [
        {
          "name": "",
          "type": "uint256"
        }
      ],
      "payable": false,
      "stateMutability": "view",
      "type": "function",
      "signature": "0x3eaaf86b"
    },
    {
      "constant": false,
      "inputs": [],
      "name": "unpause",
      "outputs": [],
      "payable": false,
      "stateMutability": "nonpayable",
      "type": "function",
      "signature": "0x3f4ba83a"
    },
    {
      "constant": true,
      "inputs": [
        {
          "name": "_maker",
          "type": "address"
        }
      ],
      "name": "getBlackListStatus",
      "outputs": [
        {
          "name": "",
          "type": "bool"
        }
      ],
      "payable": false,
      "stateMutability": "view",
      "type": "function",
      "signature": "0x59bf1abe"
    },
    {
      "constant": true,
      "inputs": [
        {
          "name": "",
          "type": "address"
        },
        {
          "name": "",
          "type": "address"
        }
      ],
      "name": "allowed",
      "outputs": [
        {
          "name": "",
          "type": "uint256"
        }
      ],
      "payable": false,
      "stateMutability": "view",
      "type": "function",
      "signature": "0x5c658165"
    },
    {
      "constant": true,
      "inputs": [],
      "name": "paused",
      "outputs": [
        {
          "name": "",
          "type": "bool"
        }
      ],
      "payable": false,
      "stateMutability": "view",
      "type": "function",
      "signature": "0x5c975abb"
    },
    {
      "constant": false,
      "inputs": [],
      "name": "pause",
      "outputs": [],
      "payable": false,
      "stateMutability": "nonpayable",
      "type": "function",
      "signature": "0x8456cb59"
    },
    {
      "constant": true,
      "inputs": [],
      "name": "getOwner",
      "outputs": [
        {
          "name": "",
          "type": "address"
        }
      ],
      "payable": false,
      "stateMutability": "view",
      "type": "function",
      "signature": "0x893d20e8"
    },
    {
      "constant": true,
      "inputs": [],
      "name": "owner",
      "outputs": [
        {
          "name": "",
          "type": "address"
        }
      ],
      "payable": false,
      "stateMutability": "view",
      "type": "function",
      "signature": "0x8da5cb5b"
    },
    {
      "constant": true,
      "inputs": [],
      "name": "symbol",
      "outputs": [
        {
          "name": "",
          "type": "string"
        }
      ],
      "payable": false,
      "stateMutability": "view",
      "type": "function",
      "signature": "0x95d89b41"
    },
    {
      "constant": true,
      "inputs": [],
      "name": "basisPointsRate",
      "outputs": [
        {
          "name": "",
          "type": "uint256"
        }
      ],
      "payable": false,
      "stateMutability": "view",
      "type": "function",
      "signature": "0xdd644f72"
    },
    {
      "constant": true,
      "inputs": [
        {
          "name": "",
          "type": "address"
        }
      ],
      "name": "isBlackListed",
      "outputs": [
        {
          "name": "",
          "type": "bool"
        }
      ],
      "payable": false,
      "stateMutability": "view",
      "type": "function",
      "signature": "0xe47d6060"
    },
    {
      "constant": false,
      "inputs": [
        {
          "name": "_clearedUser",
          "type": "address"
        }
      ],
      "name": "removeBlackList",
      "outputs": [],
      "payable": false,
      "stateMutability": "nonpayable",
      "type": "function",
      "signature": "0xe4997dc5"
    },
    {
      "constant": true,
      "inputs": [],
      "name": "MAX_UINT",
      "outputs": [
        {
          "name": "",
          "type": "uint256"
        }
      ],
      "payable": false,
      "stateMutability": "view",
      "type": "function",
      "signature": "0xe5b5019a"
    },
    {
      "constant": false,
      "inputs": [
        {
          "name": "newOwner",
          "type": "address"
        }
      ],
      "name": "transferOwnership",
      "outputs": [],
      "payable": false,
      "stateMutability": "nonpayable",
      "type": "function",
      "signature": "0xf2fde38b"
    },
    {
      "constant": false,
      "inputs": [
        {
          "name": "_blackListedUser",
          "type": "address"
        }
      ],
      "name": "destroyBlackFunds",
      "outputs": [],
      "payable": false,
      "stateMutability": "nonpayable",
      "type": "function",
      "signature": "0xf3bdc228"
    },
    {
      "inputs": [
        {
          "name": "_initialSupply",
          "type": "uint256"
        },
        {
          "name": "_name",
          "type": "string"
        },
        {
          "name": "_symbol",
          "type": "string"
        },
        {
          "name": "_decimals",
          "type": "uint256"
        }
      ],
      "payable": false,
      "stateMutability": "nonpayable",
      "type": "constructor",
      "signature": "constructor"
    },
    {
      "anonymous": false,
      "inputs": [
        {
          "indexed": false,
          "name": "amount",
          "type": "uint256"
        }
      ],
      "name": "Issue",
      "type": "event",
      "signature": "0xcb8241adb0c3fdb35b70c24ce35c5eb0c17af7431c99f827d44a445ca624176a"
    },
    {
      "anonymous": false,
      "inputs": [
        {
          "indexed": false,
          "name": "amount",
          "type": "uint256"
        }
      ],
      "name": "Redeem",
      "type": "event",
      "signature": "0x702d5967f45f6513a38ffc42d6ba9bf230bd40e8f53b16363c7eb4fd2deb9a44"
    },
    {
      "anonymous": false,
      "inputs": [
        {
          "indexed": false,
          "name": "newAddress",
          "type": "address"
        }
      ],
      "name": "Deprecate",
      "type": "event",
      "signature": "0xcc358699805e9a8b7f77b522628c7cb9abd07d9efb86b6fb616af1609036a99e"
    },
    {
      "anonymous": false,
      "inputs": [
        {
          "indexed": false,
          "name": "feeBasisPoints",
          "type": "uint256"
        },
        {
          "indexed": false,
          "name": "maxFee",
          "type": "uint256"
        }
      ],
      "name": "Params",
      "type": "event",
      "signature": "0xb044a1e409eac5c48e5af22d4af52670dd1a99059537a78b31b48c6500a6354e"
    },
    {
      "anonymous": false,
      "inputs": [
        {
          "indexed": false,
          "name": "_blackListedUser",
          "type": "address"
        },
        {
          "indexed": false,
          "name": "_balance",
          "type": "uint256"
        }
      ],
      "name": "DestroyedBlackFunds",
      "type": "event",
      "signature": "0x61e6e66b0d6339b2980aecc6ccc0039736791f0ccde9ed512e789a7fbdd698c6"
    },
    {
      "anonymous": false,
      "inputs": [
        {
          "indexed": false,
          "name": "_user",
          "type": "address"
        }
      ],
      "name": "AddedBlackList",
      "type": "event",
      "signature": "0x42e160154868087d6bfdc0ca23d96a1c1cfa32f1b72ba9ba27b69b98a0d819dc"
    },
    {
      "anonymous": false,
      "inputs": [
        {
          "indexed": false,
          "name": "_user",
          "type": "address"
        }
      ],
      "name": "RemovedBlackList",
      "type": "event",
      "signature": "0xd7e9ec6e6ecd65492dce6bf513cd6867560d49544421d0783ddf06e76c24470c"
    },
    {
      "anonymous": false,
      "inputs": [
        {
          "indexed": true,
          "name": "owner",
          "type": "address"
        },
        {
          "indexed": true,
          "name": "spender",
          "type": "address"
        },
        {
          "indexed": false,
          "name": "value",
          "type": "uint256"
        }
      ],
      "name": "Approval",
      "type": "event",
      "signature": "0x8c5be1e5ebec7d5bd14f71427d1e84f3dd0314c0f7b2291e5b200ac8c7c3b925"
    },
    {
      "anonymous": false,
      "inputs": [
        {
          "indexed": true,
          "name": "from",
          "type": "address"
        },
        {
          "indexed": true,
          "name": "to",
          "type": "address"
        },
        {
          "indexed": false,
          "name": "value",
          "type": "uint256"
        }
      ],
      "name": "Transfer",
      "type": "event",
      "signature": "0xddf252ad1be2c89b69c2b068fc378daa952ba7f163c4a11628f55a4df523b3ef"
    },
    {
      "anonymous": false,
      "inputs": [],
      "name": "Pause",
      "type": "event",
      "signature": "0x6985a02210a168e66602d3235cb6db0e70f92b3ba4d376a33c0f3d9434bff625"
    },
    {
      "anonymous": false,
      "inputs": [],
      "name": "Unpause",
      "type": "event",
      "signature": "0x7805862f689e2f13df9f062ff482ad3ad112aca9e0847911ed832e158c525b33"
    },
    {
      "constant": false,
      "inputs": [
        {
          "name": "_to",
          "type": "address"
        },
        {
          "name": "_value",
          "type": "uint256"
        }
      ],
      "name": "transfer",
      "outputs": [],
      "payable": false,
      "stateMutability": "nonpayable",
      "type": "function",
      "signature": "0xa9059cbb"
    },
    {
      "constant": false,
      "inputs": [
        {
          "name": "_from",
          "type": "address"
        },
        {
          "name": "_to",
          "type": "address"
        },
        {
          "name": "_value",
          "type": "uint256"
        }
      ],
      "name": "transferFrom",
      "outputs": [],
      "payable": false,
      "stateMutability": "nonpayable",
      "type": "function",
      "signature": "0x23b872dd"
    },
    {
      "constant": true,
      "inputs": [
        {
          "name": "who",
          "type": "address"
        }
      ],
      "name": "balanceOf",
      "outputs": [
        {
          "name": "",
          "type": "uint256"
        }
      ],
      "payable": false,
      "stateMutability": "view",
      "type": "function",
      "signature": "0x70a08231"
    },
    {
      "constant": false,
      "inputs": [
        {
          "name": "_spender",
          "type": "address"
        },
        {
          "name": "_value",
          "type": "uint256"
        }
      ],
      "name": "approve",
      "outputs": [],
      "payable": false,
      "stateMutability": "nonpayable",
      "type": "function",
      "signature": "0x095ea7b3"
    },
    {
      "constant": true,
      "inputs": [
        {
          "name": "_owner",
          "type": "address"
        },
        {
          "name": "_spender",
          "type": "address"
        }
      ],
      "name": "allowance",
      "outputs": [
        {
          "name": "remaining",
          "type": "uint256"
        }
      ],
      "payable": false,
      "stateMutability": "view",
      "type": "function",
      "signature": "0xdd62ed3e"
    },
    {
      "constant": false,
      "inputs": [
        {
          "name": "_upgradedAddress",
          "type": "address"
        }
      ],
      "name": "deprecate",
      "outputs": [],
      "payable": false,
      "stateMutability": "nonpayable",
      "type": "function",
      "signature": "0x0753c30c"
    },
    {
      "constant": true,
      "inputs": [],
      "name": "totalSupply",
      "outputs": [
        {
          "name": "",
          "type": "uint256"
        }
      ],
      "payable": false,
      "stateMutability": "view",
      "type": "function",
      "signature": "0x18160ddd"
    },
    {
      "constant": false,
      "inputs": [
        {
          "name": "amount",
          "type": "uint256"
        }
      ],
      "name": "issue",
      "outputs": [],
      "payable": false,
      "stateMutability": "nonpayable",
      "type": "function",
      "signature": "0xcc872b66"
    },
    {
      "constant": false,
      "inputs": [
        {
          "name": "amount",
          "type": "uint256"
        }
      ],
      "name": "redeem",
      "outputs": [],
      "payable": false,
      "stateMutability": "nonpayable",
      "type": "function",
      "signature": "0xdb006a75"
    },
    {
      "constant": false,
      "inputs": [
        {
          "name": "newBasisPoints",
          "type": "uint256"
        },
        {
          "name": "newMaxFee",
          "type": "uint256"
        }
      ],
      "name": "setParams",
      "outputs": [],
      "payable": false,
      "stateMutability": "nonpayable",
      "type": "function",
      "signature": "0xc0324c77"
    }
  ],
  "bytecode": "0x608060405260008060146101000a81548160ff021916908315150217905550600060035560006004553480156200003557600080fd5b5060405162002ead38038062002ead83398101806040528101908080519060200190929190805182019291906020018051820192919060200180519060200190929190505050336000806101000a81548173ffffffffffffffffffffffffffffffffffffffff021916908373ffffffffffffffffffffffffffffffffffffffff160217905550836001819055508260079080519060200190620000da92919062000185565b508160089080519060200190620000f392919062000185565b508060098190555083600260008060009054906101000a900473ffffffffffffffffffffffffffffffffffffffff1673ffffffffffffffffffffffffffffffffffffffff1673ffffffffffffffffffffffffffffffffffffffff168152602001908152602001600020819055506000600a60146101000a81548160ff0219169083151502179055505050505062000234565b828054600181600116156101000203166002900490600052602060002090601f016020900481019282601f10620001c857805160ff1916838001178555620001f9565b82800160010185558215620001f9579182015b82811115620001f8578251825591602001919060010190620001db565b5b5090506200020891906200020c565b5090565b6200023191905b808211156200022d57600081600090555060010162000213565b5090565b90565b612c6980620002446000396000f300608060405260043610610196576000357c0100000000000000000000000000000000000000000000000000000000900463ffffffff16806306fdde031461019b5780630753c30c1461022b578063095ea7b31461026e5780630e136b19146102bb5780630ecb93c0146102ea57806318160ddd1461032d57806323b872dd1461035857806326976e3f146103c557806327e235e31461041c578063313ce56714610473578063353907141461049e5780633eaaf86b146104c95780633f4ba83a146104f457806359bf1abe1461050b5780635c658165146105665780635c975abb146105dd57806370a082311461060c5780638456cb5914610663578063893d20e81461067a5780638da5cb5b146106d157806395d89b4114610728578063a9059cbb146107b8578063c0324c7714610805578063cc872b661461083c578063db006a7514610869578063dd62ed3e14610896578063dd644f721461090d578063e47d606014610938578063e4997dc514610993578063e5b5019a146109d6578063f2fde38b14610a01578063f3bdc22814610a44575b600080fd5b3480156101a757600080fd5b506101b0610a87565b6040518080602001828103825283818151815260200191508051906020019080838360005b838110156101f05780820151818401526020810190506101d5565b50505050905090810190601f16801561021d5780820380516001836020036101000a031916815260200191505b509250505060405180910390f35b34801561023757600080fd5b5061026c600480360381019080803573ffffffffffffffffffffffffffffffffffffffff169060200190929190505050610b25565b005b34801561027a57600080fd5b506102b9600480360381019080803573ffffffffffffffffffffffffffffffffffffffff16906020019092919080359060200190929190505050610c42565b005b3480156102c757600080fd5b506102d0610d95565b604051808215151515815260200191505060405180910390f35b3480156102f657600080fd5b5061032b600480360381019080803573ffffffffffffffffffffffffffffffffffffffff169060200190929190505050610da8565b005b34801561033957600080fd5b50610342610ec1565b6040518082815260200191505060405180910390f35b34801561036457600080fd5b506103c3600480360381019080803573ffffffffffffffffffffffffffffffffffffffff169060200190929190803573ffffffffffffffffffffffffffffffffffffffff16906020019092919080359060200190929190505050610fa9565b005b3480156103d157600080fd5b506103da61118e565b604051808273ffffffffffffffffffffffffffffffffffffffff1673ffffffffffffffffffffffffffffffffffffffff16815260200191505060405180910390f35b34801561042857600080fd5b5061045d600480360381019080803573ffffffffffffffffffffffffffffffffffffffff1690602001909291905050506111b4565b6040518082815260200191505060405180910390f35b34801561047f57600080fd5b506104886111cc565b6040518082815260200191505060405180910390f35b3480156104aa57600080fd5b506104b36111d2565b6040518082815260200191505060405180910390f35b3480156104d557600080fd5b506104de6111d8565b6040518082815260200191505060405180910390f35b34801561050057600080fd5b506105096111de565b005b34801561051757600080fd5b5061054c600480360381019080803573ffffffffffffffffffffffffffffffffffffffff16906020019092919050505061129c565b604051808215151515815260200191505060405180910390f35b34801561057257600080fd5b506105c7600480360381019080803573ffffffffffffffffffffffffffffffffffffffff169060200190929190803573ffffffffffffffffffffffffffffffffffffffff1690602001909291905050506112f2565b6040518082815260200191505060405180910390f35b3480156105e957600080fd5b506105f2611317565b604051808215151515815260200191505060405180910390f35b34801561061857600080fd5b5061064d600480360381019080803573ffffffffffffffffffffffffffffffffffffffff16906020019092919050505061132a565b6040518082815260200191505060405180910390f35b34801561066f57600080fd5b50610678611451565b005b34801561068657600080fd5b5061068f611511565b604051808273ffffffffffffffffffffffffffffffffffffffff1673ffffffffffffffffffffffffffffffffffffffff16815260200191505060405180910390f35b3480156106dd57600080fd5b506106e661153a565b604051808273ffffffffffffffffffffffffffffffffffffffff1673ffffffffffffffffffffffffffffffffffffffff16815260200191505060405180910390f35b34801561073457600080fd5b5061073d61155f565b6040518080602001828103825283818151815260200191508051906020019080838360005b8381101561077d578082015181840152602081019050610762565b50505050905090810190601f1680156107aa5780820380516001836020036101000a031916815260200191505b509250505060405180910390f35b3480156107c457600080fd5b50610803600480360381019080803573ffffffffffffffffffffffffffffffffffffffff169060200190929190803590602001909291905050506115fd565b005b34801561081157600080fd5b5061083a60048036038101908080359060200190929190803590602001909291905050506117ac565b005b34801561084857600080fd5b5061086760048036038101908080359060200190929190505050611891565b005b34801561087557600080fd5b5061089460048036038101908080359060200190929190505050611a88565b005b3480156108a257600080fd5b506108f7600480360381019080803573ffffffffffffffffffffffffffffffffffffffff169060200190929190803573ffffffffffffffffffffffffffffffffffffffff169060200190929190505050611c1b565b6040518082815260200191505060405180910390f35b34801561091957600080fd5b50610922611d78565b6040518082815260200191505060405180910390f35b34801561094457600080fd5b50610979600480360381019080803573ffffffffffffffffffffffffffffffffffffffff169060200190929190505050611d7e565b604051808215151515815260200191505060405180910390f35b34801561099f57600080fd5b506109d4600480360381019080803573ffffffffffffffffffffffffffffffffffffffff169060200190929190505050611d9e565b005b3480156109e257600080fd5b506109eb611eb7565b6040518082815260200191505060405180910390f35b348015610a0d57600080fd5b50610a42600480360381019080803573ffffffffffffffffffffffffffffffffffffffff169060200190929190505050611edb565b005b348015610a5057600080fd5b50610a85600480360381019080803573ffffffffffffffffffffffffffffffffffffffff169060200190929190505050611fb0565b005b60078054600181600116156101000203166002900480601f016020809104026020016040519081016040528092919081815260200182805460018160011615610100020316600290048015610b1d5780601f10610af257610100808354040283529160200191610b1d565b820191906000526020600020905b815481529060010190602001808311610b0057829003601f168201915b505050505081565b6000809054906101000a900473ffffffffffffffffffffffffffffffffffffffff1673ffffffffffffffffffffffffffffffffffffffff163373ffffffffffffffffffffffffffffffffffffffff16141515610b8057600080fd5b6001600a60146101000a81548160ff02191690831515021790555080600a60006101000a81548173ffffffffffffffffffffffffffffffffffffffff021916908373ffffffffffffffffffffffffffffffffffffffff1602179055507fcc358699805e9a8b7f77b522628c7cb9abd07d9efb86b6fb616af1609036a99e81604051808273ffffffffffffffffffffffffffffffffffffffff1673ffffffffffffffffffffffffffffffffffffffff16815260200191505060405180910390a150565b604060048101600036905010151515610c5a57600080fd5b600a60149054906101000a900460ff1615610d8557600a60009054906101000a900473ffffffffffffffffffffffffffffffffffffffff1673ffffffffffffffffffffffffffffffffffffffff1663aee92d333385856040518463ffffffff167c0100000000000000000000000000000000000000000000000000000000028152600401808473ffffffffffffffffffffffffffffffffffffffff1673ffffffffffffffffffffffffffffffffffffffff1681526020018373ffffffffffffffffffffffffffffffffffffffff1673ffffffffffffffffffffffffffffffffffffffff1681526020018281526020019350505050600060405180830381600087803b158015610d6857600080fd5b505af1158015610d7c573d6000803e3d6000fd5b50505050610d90565b610d8f8383612134565b5b505050565b600a60149054906101000a900460ff1681565b6000809054906101000a900473ffffffffffffffffffffffffffffffffffffffff1673ffffffffffffffffffffffffffffffffffffffff163373ffffffffffffffffffffffffffffffffffffffff16141515610e0357600080fd5b6001600660008373ffffffffffffffffffffffffffffffffffffffff1673ffffffffffffffffffffffffffffffffffffffff16815260200190815260200160002060006101000a81548160ff0219169083151502179055507f42e160154868087d6bfdc0ca23d96a1c1cfa32f1b72ba9ba27b69b98a0d819dc81604051808273ffffffffffffffffffffffffffffffffffffffff1673ffffffffffffffffffffffffffffffffffffffff16815260200191505060405180910390a150565b6000600a60149054906101000a900460ff1615610fa057600a60009054906101000a900473ffffffffffffffffffffffffffffffffffffffff1673ffffffffffffffffffffffffffffffffffffffff166318160ddd6040518163ffffffff167c0100000000000000000000000000000000000000000000000000000000028152600401602060405180830381600087803b158015610f5e57600080fd5b505af1158015610f72573d6000803e3d6000fd5b505050506040513d6020811015610f8857600080fd5b81019080805190602001909291905050509050610fa6565b60015490505b90565b600060149054906101000a900460ff16151515610fc557600080fd5b600660008473ffffffffffffffffffffffffffffffffffffffff1673ffffffffffffffffffffffffffffffffffffffff16815260200190815260200160002060009054906101000a900460ff1615151561101e57600080fd5b600a60149054906101000a900460ff161561117d57600a60009054906101000a900473ffffffffffffffffffffffffffffffffffffffff1673ffffffffffffffffffffffffffffffffffffffff16638b477adb338585856040518563ffffffff167c0100000000000000000000000000000000000000000000000000000000028152600401808573ffffffffffffffffffffffffffffffffffffffff1673ffffffffffffffffffffffffffffffffffffffff1681526020018473ffffffffffffffffffffffffffffffffffffffff1673ffffffffffffffffffffffffffffffffffffffff1681526020018373ffffffffffffffffffffffffffffffffffffffff1673ffffffffffffffffffffffffffffffffffffffff168152602001828152602001945050505050600060405180830381600087803b15801561116057600080fd5b505af1158015611174573d6000803e3d6000fd5b50505050611189565b6111888383836122d1565b5b505050565b600a60009054906101000a900473ffffffffffffffffffffffffffffffffffffffff1681565b60026020528060005260406000206000915090505481565b60095481565b60045481565b60015481565b6000809054906101000a900473ffffffffffffffffffffffffffffffffffffffff1673ffffffffffffffffffffffffffffffffffffffff163373ffffffffffffffffffffffffffffffffffffffff1614151561123957600080fd5b600060149054906101000a900460ff16151561125457600080fd5b60008060146101000a81548160ff0219169083151502179055507f7805862f689e2f13df9f062ff482ad3ad112aca9e0847911ed832e158c525b3360405160405180910390a1565b6000600660008373ffffffffffffffffffffffffffffffffffffffff1673ffffffffffffffffffffffffffffffffffffffff16815260200190815260200160002060009054906101000a900460ff169050919050565b6005602052816000526040600020602052806000526040600020600091509150505481565b600060149054906101000a900460ff1681565b6000600a60149054906101000a900460ff161561144057600a60009054906101000a900473ffffffffffffffffffffffffffffffffffffffff1673ffffffffffffffffffffffffffffffffffffffff166370a08231836040518263ffffffff167c0100000000000000000000000000000000000000000000000000000000028152600401808273ffffffffffffffffffffffffffffffffffffffff1673ffffffffffffffffffffffffffffffffffffffff168152602001915050602060405180830381600087803b1580156113fe57600080fd5b505af1158015611412573d6000803e3d6000fd5b505050506040513d602081101561142857600080fd5b8101908080519060200190929190505050905061144c565b61144982612778565b90505b919050565b6000809054906101000a900473ffffffffffffffffffffffffffffffffffffffff1673ffffffffffffffffffffffffffffffffffffffff163373ffffffffffffffffffffffffffffffffffffffff161415156114ac57600080fd5b600060149054906101000a900460ff161515156114c857600080fd5b6001600060146101000a81548160ff0219169083151502179055507f6985a02210a168e66602d3235cb6db0e70f92b3ba4d376a33c0f3d9434bff62560405160405180910390a1565b60008060009054906101000a900473ffffffffffffffffffffffffffffffffffffffff16905090565b6000809054906101000a900473ffffffffffffffffffffffffffffffffffffffff1681565b60088054600181600116156101000203166002900480601f0160208091040260200160405190810160405280929190818152602001828054600181600116156101000203166002900480156115f55780601f106115ca576101008083540402835291602001916115f5565b820191906000526020600020905b8154815290600101906020018083116115d857829003601f168201915b505050505081565b600060149054906101000a900460ff1615151561161957600080fd5b600660003373ffffffffffffffffffffffffffffffffffffffff1673ffffffffffffffffffffffffffffffffffffffff16815260200190815260200160002060009054906101000a900460ff1615151561167257600080fd5b600a60149054906101000a900460ff161561179d57600a60009054906101000a900473ffffffffffffffffffffffffffffffffffffffff1673ffffffffffffffffffffffffffffffffffffffff16636e18980a3384846040518463ffffffff167c0100000000000000000000000000000000000000000000000000000000028152600401808473ffffffffffffffffffffffffffffffffffffffff1673ffffffffffffffffffffffffffffffffffffffff1681526020018373ffffffffffffffffffffffffffffffffffffffff1673ffffffffffffffffffffffffffffffffffffffff1681526020018281526020019350505050600060405180830381600087803b15801561178057600080fd5b505af1158015611794573d6000803e3d6000fd5b505050506117a8565b6117a782826127c1565b5b5050565b6000809054906101000a900473ffffffffffffffffffffffffffffffffffffffff1673ffffffffffffffffffffffffffffffffffffffff163373ffffffffffffffffffffffffffffffffffffffff1614151561180757600080fd5b60148210151561181657600080fd5b60328110151561182557600080fd5b81600381905550611844600954600a0a82612b2990919063ffffffff16565b6004819055507fb044a1e409eac5c48e5af22d4af52670dd1a99059537a78b31b48c6500a6354e600354600454604051808381526020018281526020019250505060405180910390a15050565b6000809054906101000a900473ffffffffffffffffffffffffffffffffffffffff1673ffffffffffffffffffffffffffffffffffffffff163373ffffffffffffffffffffffffffffffffffffffff161415156118ec57600080fd5b600154816001540111151561190057600080fd5b600260008060009054906101000a900473ffffffffffffffffffffffffffffffffffffffff1673ffffffffffffffffffffffffffffffffffffffff1673ffffffffffffffffffffffffffffffffffffffff1681526020019081526020016000205481600260008060009054906101000a900473ffffffffffffffffffffffffffffffffffffffff1673ffffffffffffffffffffffffffffffffffffffff1673ffffffffffffffffffffffffffffffffffffffff16815260200190815260200160002054011115156119d057600080fd5b80600260008060009054906101000a900473ffffffffffffffffffffffffffffffffffffffff1673ffffffffffffffffffffffffffffffffffffffff1673ffffffffffffffffffffffffffffffffffffffff16815260200190815260200160002060008282540192505081905550806001600082825401925050819055507fcb8241adb0c3fdb35b70c24ce35c5eb0c17af7431c99f827d44a445ca624176a816040518082815260200191505060405180910390a150565b6000809054906101000a900473ffffffffffffffffffffffffffffffffffffffff1673ffffffffffffffffffffffffffffffffffffffff163373ffffffffffffffffffffffffffffffffffffffff16141515611ae357600080fd5b8060015410151515611af457600080fd5b80600260008060009054906101000a900473ffffffffffffffffffffffffffffffffffffffff1673ffffffffffffffffffffffffffffffffffffffff1673ffffffffffffffffffffffffffffffffffffffff1681526020019081526020016000205410151515611b6357600080fd5b8060016000828254039250508190555080600260008060009054906101000a900473ffffffffffffffffffffffffffffffffffffffff1673ffffffffffffffffffffffffffffffffffffffff1673ffffffffffffffffffffffffffffffffffffffff168152602001908152602001600020600082825403925050819055507f702d5967f45f6513a38ffc42d6ba9bf230bd40e8f53b16363c7eb4fd2deb9a44816040518082815260200191505060405180910390a150565b6000600a60149054906101000a900460ff1615611d6557600a60009054906101000a900473ffffffffffffffffffffffffffffffffffffffff1673ffffffffffffffffffffffffffffffffffffffff1663dd62ed3e84846040518363ffffffff167c0100000000000000000000000000000000000000000000000000000000028152600401808373ffffffffffffffffffffffffffffffffffffffff1673ffffffffffffffffffffffffffffffffffffffff1681526020018273ffffffffffffffffffffffffffffffffffffffff1673ffffffffffffffffffffffffffffffffffffffff16815260200192505050602060405180830381600087803b158015611d2357600080fd5b505af1158015611d37573d6000803e3d6000fd5b505050506040513d6020811015611d4d57600080fd5b81019080805190602001909291905050509050611d72565b611d6f8383612b64565b90505b92915050565b60035481565b60066020528060005260406000206000915054906101000a900460ff1681565b6000809054906101000a900473ffffffffffffffffffffffffffffffffffffffff1673ffffffffffffffffffffffffffffffffffffffff163373ffffffffffffffffffffffffffffffffffffffff16141515611df957600080fd5b6000600660008373ffffffffffffffffffffffffffffffffffffffff1673ffffffffffffffffffffffffffffffffffffffff16815260200190815260200160002060006101000a81548160ff0219169083151502179055507fd7e9ec6e6ecd65492dce6bf513cd6867560d49544421d0783ddf06e76c24470c81604051808273ffffffffffffffffffffffffffffffffffffffff1673ffffffffffffffffffffffffffffffffffffffff16815260200191505060405180910390a150565b7fffffffffffffffffffffffffffffffffffffffffffffffffffffffffffffffff81565b6000809054906101000a900473ffffffffffffffffffffffffffffffffffffffff1673ffffffffffffffffffffffffffffffffffffffff163373ffffffffffffffffffffffffffffffffffffffff16141515611f3657600080fd5b600073ffffffffffffffffffffffffffffffffffffffff168173ffffffffffffffffffffffffffffffffffffffff16141515611fad57806000806101000a81548173ffffffffffffffffffffffffffffffffffffffff021916908373ffffffffffffffffffffffffffffffffffffffff1602179055505b50565b60008060009054906101000a900473ffffffffffffffffffffffffffffffffffffffff1673ffffffffffffffffffffffffffffffffffffffff163373ffffffffffffffffffffffffffffffffffffffff1614151561200d57600080fd5b600660008373ffffffffffffffffffffffffffffffffffffffff1673ffffffffffffffffffffffffffffffffffffffff16815260200190815260200160002060009054906101000a900460ff16151561206557600080fd5b61206e8261132a565b90506000600260008473ffffffffffffffffffffffffffffffffffffffff1673ffffffffffffffffffffffffffffffffffffffff16815260200190815260200160002081905550806001600082825403925050819055507f61e6e66b0d6339b2980aecc6ccc0039736791f0ccde9ed512e789a7fbdd698c68282604051808373ffffffffffffffffffffffffffffffffffffffff1673ffffffffffffffffffffffffffffffffffffffff1681526020018281526020019250505060405180910390a15050565b60406004810160003690501015151561214c57600080fd5b600082141580156121da57506000600560003373ffffffffffffffffffffffffffffffffffffffff1673ffffffffffffffffffffffffffffffffffffffff16815260200190815260200160002060008573ffffffffffffffffffffffffffffffffffffffff1673ffffffffffffffffffffffffffffffffffffffff1681526020019081526020016000205414155b1515156121e657600080fd5b81600560003373ffffffffffffffffffffffffffffffffffffffff1673ffffffffffffffffffffffffffffffffffffffff16815260200190815260200160002060008573ffffffffffffffffffffffffffffffffffffffff1673ffffffffffffffffffffffffffffffffffffffff168152602001908152602001600020819055508273ffffffffffffffffffffffffffffffffffffffff163373ffffffffffffffffffffffffffffffffffffffff167f8c5be1e5ebec7d5bd14f71427d1e84f3dd0314c0f7b2291e5b200ac8c7c3b925846040518082815260200191505060405180910390a3505050565b60008060006060600481016000369050101515156122ee57600080fd5b600560008873ffffffffffffffffffffffffffffffffffffffff1673ffffffffffffffffffffffffffffffffffffffff16815260200190815260200160002060003373ffffffffffffffffffffffffffffffffffffffff1673ffffffffffffffffffffffffffffffffffffffff16815260200190815260200160002054935061239661271061238860035488612b2990919063ffffffff16565b612beb90919063ffffffff16565b92506004548311156123a85760045492505b7fffffffffffffffffffffffffffffffffffffffffffffffffffffffffffffffff841015612464576123e38585612c0690919063ffffffff16565b600560008973ffffffffffffffffffffffffffffffffffffffff1673ffffffffffffffffffffffffffffffffffffffff16815260200190815260200160002060003373ffffffffffffffffffffffffffffffffffffffff1673ffffffffffffffffffffffffffffffffffffffff168152602001908152602001600020819055505b6124778386612c0690919063ffffffff16565b91506124cb85600260008a73ffffffffffffffffffffffffffffffffffffffff1673ffffffffffffffffffffffffffffffffffffffff16815260200190815260200160002054612c0690919063ffffffff16565b600260008973ffffffffffffffffffffffffffffffffffffffff1673ffffffffffffffffffffffffffffffffffffffff1681526020019081526020016000208190555061256082600260008973ffffffffffffffffffffffffffffffffffffffff1673ffffffffffffffffffffffffffffffffffffffff16815260200190815260200160002054612c1f90919063ffffffff16565b600260008873ffffffffffffffffffffffffffffffffffffffff1673ffffffffffffffffffffffffffffffffffffffff16815260200190815260200160002081905550600083111561270a5761261f83600260008060009054906101000a900473ffffffffffffffffffffffffffffffffffffffff1673ffffffffffffffffffffffffffffffffffffffff1673ffffffffffffffffffffffffffffffffffffffff16815260200190815260200160002054612c1f90919063ffffffff16565b600260008060009054906101000a900473ffffffffffffffffffffffffffffffffffffffff1673ffffffffffffffffffffffffffffffffffffffff1673ffffffffffffffffffffffffffffffffffffffff168152602001908152602001600020819055506000809054906101000a900473ffffffffffffffffffffffffffffffffffffffff1673ffffffffffffffffffffffffffffffffffffffff168773ffffffffffffffffffffffffffffffffffffffff167fddf252ad1be2c89b69c2b068fc378daa952ba7f163c4a11628f55a4df523b3ef856040518082815260200191505060405180910390a35b8573ffffffffffffffffffffffffffffffffffffffff168773ffffffffffffffffffffffffffffffffffffffff167fddf252ad1be2c89b69c2b068fc378daa952ba7f163c4a11628f55a4df523b3ef846040518082815260200191505060405180910390a350505050505050565b6000600260008373ffffffffffffffffffffffffffffffffffffffff1673ffffffffffffffffffffffffffffffffffffffff168152602001908152602001600020549050919050565b6000806040600481016000369050101515156127dc57600080fd5b6128056127106127f760035487612b2990919063ffffffff16565b612beb90919063ffffffff16565b92506004548311156128175760045492505b61282a8385612c0690919063ffffffff16565b915061287e84600260003373ffffffffffffffffffffffffffffffffffffffff1673ffffffffffffffffffffffffffffffffffffffff16815260200190815260200160002054612c0690919063ffffffff16565b600260003373ffffffffffffffffffffffffffffffffffffffff1673ffffffffffffffffffffffffffffffffffffffff1681526020019081526020016000208190555061291382600260008873ffffffffffffffffffffffffffffffffffffffff1673ffffffffffffffffffffffffffffffffffffffff16815260200190815260200160002054612c1f90919063ffffffff16565b600260008773ffffffffffffffffffffffffffffffffffffffff1673ffffffffffffffffffffffffffffffffffffffff168152602001908152602001600020819055506000831115612abd576129d283600260008060009054906101000a900473ffffffffffffffffffffffffffffffffffffffff1673ffffffffffffffffffffffffffffffffffffffff1673ffffffffffffffffffffffffffffffffffffffff16815260200190815260200160002054612c1f90919063ffffffff16565b600260008060009054906101000a900473ffffffffffffffffffffffffffffffffffffffff1673ffffffffffffffffffffffffffffffffffffffff1673ffffffffffffffffffffffffffffffffffffffff168152602001908152602001600020819055506000809054906101000a900473ffffffffffffffffffffffffffffffffffffffff1673ffffffffffffffffffffffffffffffffffffffff163373ffffffffffffffffffffffffffffffffffffffff167fddf252ad1be2c89b69c2b068fc378daa952ba7f163c4a11628f55a4df523b3ef856040518082815260200191505060405180910390a35b8473ffffffffffffffffffffffffffffffffffffffff163373ffffffffffffffffffffffffffffffffffffffff167fddf252ad1be2c89b69c2b068fc378daa952ba7f163c4a11628f55a4df523b3ef846040518082815260200191505060405180910390a35050505050565b6000806000841415612b3e5760009150612b5d565b8284029050828482811515612b4f57fe5b04141515612b5957fe5b8091505b5092915050565b6000600560008473ffffffffffffffffffffffffffffffffffffffff1673ffffffffffffffffffffffffffffffffffffffff16815260200190815260200160002060008373ffffffffffffffffffffffffffffffffffffffff1673ffffffffffffffffffffffffffffffffffffffff16815260200190815260200160002054905092915050565b6000808284811515612bf957fe5b0490508091505092915050565b6000828211151515612c1457fe5b818303905092915050565b6000808284019050838110151515612c3357fe5b80915050929150505600a165627a7a72305820ad9a8b7cdef973a5c423fa187c245c03db9cd63aff1ddb0ed383e37f20f008500029",
  "source": "/**\n *Submitted for verification at Etherscan.io on 2017-11-28\n*/\n\npragma solidity ^0.4.17;\n\n/**\n * @title SafeMath\n * @dev Math operations with safety checks that throw on error\n */\nlibrary SafeMath {\n    function mul(uint256 a, uint256 b) internal pure returns (uint256) {\n        if (a == 0) {\n            return 0;\n        }\n        uint256 c = a * b;\n        assert(c / a == b);\n        return c;\n    }\n\n    function div(uint256 a, uint256 b) internal pure returns (uint256) {\n        // assert(b > 0); // Solidity automatically throws when dividing by 0\n        uint256 c = a / b;\n        // assert(a == b * c + a % b); // There is no case in which this doesn't hold\n        return c;\n    }\n\n    function sub(uint256 a, uint256 b) internal pure returns (uint256) {\n        assert(b <= a);\n        return a - b;\n    }\n\n    function add(uint256 a, uint256 b) internal pure returns (uint256) {\n        uint256 c = a + b;\n        assert(c >= a);\n        return c;\n    }\n}\n\n/**\n * @title Ownable\n * @dev The Ownable contract has an owner address, and provides basic authorization control\n * functions, this simplifies the implementation of \"user permissions\".\n */\ncontract Ownable {\n    address public owner;\n\n    /**\n      * @dev The Ownable constructor sets the original `owner` of the contract to the sender\n      * account.\n      */\n    function Ownable() public {\n        owner = msg.sender;\n    }\n\n    /**\n      * @dev Throws if called by any account other than the owner.\n      */\n    modifier onlyOwner() {\n        require(msg.sender == owner);\n        _;\n    }\n\n    /**\n    * @dev Allows the current owner to transfer control of the contract to a newOwner.\n    * @param newOwner The address to transfer ownership to.\n    */\n    function transferOwnership(address newOwner) public onlyOwner {\n        if (newOwner != address(0)) {\n            owner = newOwner;\n        }\n    }\n\n}\n\n/**\n * @title ERC20Basic\n * @dev Simpler version of ERC20 interface\n * @dev see https://github.com/ethereum/EIPs/issues/20\n */\ncontract ERC20Basic {\n    uint public _totalSupply;\n    function totalSupply() public constant returns (uint);\n    function balanceOf(address who) public constant returns (uint);\n    function transfer(address to, uint value) public;\n    event Transfer(address indexed from, address indexed to, uint value);\n}\n\n/**\n * @title ERC20 interface\n * @dev see https://github.com/ethereum/EIPs/issues/20\n */\ncontract ERC20 is ERC20Basic {\n    function allowance(address owner, address spender) public constant returns (uint);\n    function transferFrom(address from, address to, uint value) public;\n    function approve(address spender, uint value) public;\n    event Approval(address indexed owner, address indexed spender, uint value);\n}\n\n/**\n * @title Basic token\n * @dev Basic version of StandardToken, with no allowances.\n */\ncontract BasicToken is Ownable, ERC20Basic {\n    using SafeMath for uint;\n\n    mapping(address => uint) public balances;\n\n    // additional variables for use if transaction fees ever became necessary\n    uint public basisPointsRate = 0;\n    uint public maximumFee = 0;\n\n    /**\n    * @dev Fix for the ERC20 short address attack.\n    */\n    modifier onlyPayloadSize(uint size) {\n        require(!(msg.data.length < size + 4));\n        _;\n    }\n\n    /**\n    * @dev transfer token for a specified address\n    * @param _to The address to transfer to.\n    * @param _value The amount to be transferred.\n    */\n    function transfer(address _to, uint _value) public onlyPayloadSize(2 * 32) {\n        uint fee = (_value.mul(basisPointsRate)).div(10000);\n        if (fee > maximumFee) {\n            fee = maximumFee;\n        }\n        uint sendAmount = _value.sub(fee);\n        balances[msg.sender] = balances[msg.sender].sub(_value);\n        balances[_to] = balances[_to].add(sendAmount);\n        if (fee > 0) {\n            balances[owner] = balances[owner].add(fee);\n            Transfer(msg.sender, owner, fee);\n        }\n        Transfer(msg.sender, _to, sendAmount);\n    }\n\n    /**\n    * @dev Gets the balance of the specified address.\n    * @param _owner The address to query the the balance of.\n    * @return An uint representing the amount owned by the passed address.\n    */\n    function balanceOf(address _owner) public constant returns (uint balance) {\n        return balances[_owner];\n    }\n\n}\n\n/**\n * @title Standard ERC20 token\n *\n * @dev Implementation of the basic standard token.\n * @dev https://github.com/ethereum/EIPs/issues/20\n * @dev Based oncode by FirstBlood: https://github.com/Firstbloodio/token/blob/master/smart_contract/FirstBloodToken.sol\n */\ncontract StandardToken is BasicToken, ERC20 {\n\n    mapping (address => mapping (address => uint)) public allowed;\n\n    uint public constant MAX_UINT = 2**256 - 1;\n\n    /**\n    * @dev Transfer tokens from one address to another\n    * @param _from address The address which you want to send tokens from\n    * @param _to address The address which you want to transfer to\n    * @param _value uint the amount of tokens to be transferred\n    */\n    function transferFrom(address _from, address _to, uint _value) public onlyPayloadSize(3 * 32) {\n        var _allowance = allowed[_from][msg.sender];\n\n        // Check is not needed because sub(_allowance, _value) will already throw if this condition is not met\n        // if (_value > _allowance) throw;\n\n        uint fee = (_value.mul(basisPointsRate)).div(10000);\n        if (fee > maximumFee) {\n            fee = maximumFee;\n        }\n        if (_allowance < MAX_UINT) {\n            allowed[_from][msg.sender] = _allowance.sub(_value);\n        }\n        uint sendAmount = _value.sub(fee);\n        balances[_from] = balances[_from].sub(_value);\n        balances[_to] = balances[_to].add(sendAmount);\n        if (fee > 0) {\n            balances[owner] = balances[owner].add(fee);\n            Transfer(_from, owner, fee);\n        }\n        Transfer(_from, _to, sendAmount);\n    }\n\n    /**\n    * @dev Approve the passed address to spend the specified amount of tokens on behalf of msg.sender.\n    * @param _spender The address which will spend the funds.\n    * @param _value The amount of tokens to be spent.\n    */\n    function approve(address _spender, uint _value) public onlyPayloadSize(2 * 32) {\n\n        // To change the approve amount you first have to reduce the addresses`\n        //  allowance to zero by calling `approve(_spender, 0)` if it is not\n        //  already 0 to mitigate the race condition described here:\n        //  https://github.com/ethereum/EIPs/issues/20#issuecomment-263524729\n        require(!((_value != 0) && (allowed[msg.sender][_spender] != 0)));\n\n        allowed[msg.sender][_spender] = _value;\n        Approval(msg.sender, _spender, _value);\n    }\n\n    /**\n    * @dev Function to check the amount of tokens than an owner allowed to a spender.\n    * @param _owner address The address which owns the funds.\n    * @param _spender address The address which will spend the funds.\n    * @return A uint specifying the amount of tokens still available for the spender.\n    */\n    function allowance(address _owner, address _spender) public constant returns (uint remaining) {\n        return allowed[_owner][_spender];\n    }\n\n}\n\n\n/**\n * @title Pausable\n * @dev Base contract which allows children to implement an emergency stop mechanism.\n */\ncontract Pausable is Ownable {\n  event Pause();\n  event Unpause();\n\n  bool public paused = false;\n\n\n  /**\n   * @dev Modifier to make a function callable only when the contract is not paused.\n   */\n  modifier whenNotPaused() {\n    require(!paused);\n    _;\n  }\n\n  /**\n   * @dev Modifier to make a function callable only when the contract is paused.\n   */\n  modifier whenPaused() {\n    require(paused);\n    _;\n  }\n\n  /**\n   * @dev called by the owner to pause, triggers stopped state\n   */\n  function pause() onlyOwner whenNotPaused public {\n    paused = true;\n    Pause();\n  }\n\n  /**\n   * @dev called by the owner to unpause, returns to normal state\n   */\n  function unpause() onlyOwner whenPaused public {\n    paused = false;\n    Unpause();\n  }\n}\n\ncontract BlackList is Ownable, BasicToken {\n\n    /////// Getters to allow the same blacklist to be used also by other contracts (including upgraded Tether) ///////\n    function getBlackListStatus(address _maker) external constant returns (bool) {\n        return isBlackListed[_maker];\n    }\n\n    function getOwner() external constant returns (address) {\n        return owner;\n    }\n\n    mapping (address => bool) public isBlackListed;\n    \n    function addBlackList (address _evilUser) public onlyOwner {\n        isBlackListed[_evilUser] = true;\n        AddedBlackList(_evilUser);\n    }\n\n    function removeBlackList (address _clearedUser) public onlyOwner {\n        isBlackListed[_clearedUser] = false;\n        RemovedBlackList(_clearedUser);\n    }\n\n    function destroyBlackFunds (address _blackListedUser) public onlyOwner {\n        require(isBlackListed[_blackListedUser]);\n        uint dirtyFunds = balanceOf(_blackListedUser);\n        balances[_blackListedUser] = 0;\n        _totalSupply -= dirtyFunds;\n        DestroyedBlackFunds(_blackListedUser, dirtyFunds);\n    }\n\n    event DestroyedBlackFunds(address _blackListedUser, uint _balance);\n\n    event AddedBlackList(address _user);\n\n    event RemovedBlackList(address _user);\n\n}\n\ncontract UpgradedStandardToken is StandardToken{\n    // those methods are called by the legacy contract\n    // and they must ensure msg.sender to be the contract address\n    function transferByLegacy(address from, address to, uint value) public;\n    function transferFromByLegacy(address sender, address from, address spender, uint value) public;\n    function approveByLegacy(address from, address spender, uint value) public;\n}\n\ncontract TetherToken is Pausable, StandardToken, BlackList {\n\n    string public name;\n    string public symbol;\n    uint public decimals;\n    address public upgradedAddress;\n    bool public deprecated;\n\n    //  The contract can be initialized with a number of tokens\n    //  All the tokens are deposited to the owner address\n    //\n    // @param _balance Initial supply of the contract\n    // @param _name Token Name\n    // @param _symbol Token symbol\n    // @param _decimals Token decimals\n    function TetherToken(uint _initialSupply, string _name, string _symbol, uint _decimals) public {\n        _totalSupply = _initialSupply;\n        name = _name;\n        symbol = _symbol;\n        decimals = _decimals;\n        balances[owner] = _initialSupply;\n        deprecated = false;\n    }\n\n    // Forward ERC20 methods to upgraded contract if this one is deprecated\n    function transfer(address _to, uint _value) public whenNotPaused {\n        require(!isBlackListed[msg.sender]);\n        if (deprecated) {\n            return UpgradedStandardToken(upgradedAddress).transferByLegacy(msg.sender, _to, _value);\n        } else {\n            return super.transfer(_to, _value);\n        }\n    }\n\n    // Forward ERC20 methods to upgraded contract if this one is deprecated\n    function transferFrom(address _from, address _to, uint _value) public whenNotPaused {\n        require(!isBlackListed[_from]);\n        if (deprecated) {\n            return UpgradedStandardToken(upgradedAddress).transferFromByLegacy(msg.sender, _from, _to, _value);\n        } else {\n            return super.transferFrom(_from, _to, _value);\n        }\n    }\n\n    // Forward ERC20 methods to upgraded contract if this one is deprecated\n    function balanceOf(address who) public constant returns (uint) {\n        if (deprecated) {\n            return UpgradedStandardToken(upgradedAddress).balanceOf(who);\n        } else {\n            return super.balanceOf(who);\n        }\n    }\n\n    // Forward ERC20 methods to upgraded contract if this one is deprecated\n    function approve(address _spender, uint _value) public onlyPayloadSize(2 * 32) {\n        if (deprecated) {\n            return UpgradedStandardToken(upgradedAddress).approveByLegacy(msg.sender, _spender, _value);\n        } else {\n            return super.approve(_spender, _value);\n        }\n    }\n\n    // Forward ERC20 methods to upgraded contract if this one is deprecated\n    function allowance(address _owner, address _spender) public constant returns (uint remaining) {\n        if (deprecated) {\n            return StandardToken(upgradedAddress).allowance(_owner, _spender);\n        } else {\n            return super.allowance(_owner, _spender);\n        }\n    }\n\n    // deprecate current contract in favour of a new one\n    function deprecate(address _upgradedAddress) public onlyOwner {\n        deprecated = true;\n        upgradedAddress = _upgradedAddress;\n        Deprecate(_upgradedAddress);\n    }\n\n    // deprecate current contract if favour of a new one\n    function totalSupply() public constant returns (uint) {\n        if (deprecated) {\n            return StandardToken(upgradedAddress).totalSupply();\n        } else {\n            return _totalSupply;\n        }\n    }\n\n    // Issue a new amount of tokens\n    // these tokens are deposited into the owner address\n    //\n    // @param _amount Number of tokens to be issued\n    function issue(uint amount) public onlyOwner {\n        require(_totalSupply + amount > _totalSupply);\n        require(balances[owner] + amount > balances[owner]);\n\n        balances[owner] += amount;\n        _totalSupply += amount;\n        Issue(amount);\n    }\n\n    // Redeem tokens.\n    // These tokens are withdrawn from the owner address\n    // if the balance must be enough to cover the redeem\n    // or the call will fail.\n    // @param _amount Number of tokens to be issued\n    function redeem(uint amount) public onlyOwner {\n        require(_totalSupply >= amount);\n        require(balances[owner] >= amount);\n\n        _totalSupply -= amount;\n        balances[owner] -= amount;\n        Redeem(amount);\n    }\n\n    function setParams(uint newBasisPoints, uint newMaxFee) public onlyOwner {\n        // Ensure transparency by hardcoding limit beyond which fees can never be added\n        require(newBasisPoints < 20);\n        require(newMaxFee < 50);\n\n        basisPointsRate = newBasisPoints;\n        maximumFee = newMaxFee.mul(10**decimals);\n\n        Params(basisPointsRate, maximumFee);\n    }\n\n    // Called when new token are issued\n    event Issue(uint amount);\n\n    // Called when tokens are redeemed\n    event Redeem(uint amount);\n\n    // Called when contract is deprecated\n    event Deprecate(address newAddress);\n\n    // Called if contract ever adds fees\n    event Params(uint feeBasisPoints, uint maxFee);\n}",
  "sourcePath": "/Volumes/work/blockchains/ETH/eth-geth-dev/truffle/contracts/TetherToken.sol",
  "compiler": {
    "name": "solc",
    "version": "0.4.24+commit.e67f0147.Linux.g++"
  },
  "schemaVersion": "3.0.6",
  "updatedAt": "2019-06-20T10:12:17.095Z",
  "devdoc": {
    "methods": {
      "pause()": {
        "details": "called by the owner to pause, triggers stopped state"
      },
      "transferOwnership(address)": {
        "details": "Allows the current owner to transfer control of the contract to a newOwner.",
        "params": {
          "newOwner": "The address to transfer ownership to."
        }
      },
      "unpause()": {
        "details": "called by the owner to unpause, returns to normal state"
      }
    }
  },
  "userdoc": {
    "methods": {
      "getBlackListStatus(address)": {
        "notice": "//// Getters to allow the same blacklist to be used also by other contracts (including upgraded Tether) ///////"
      }
    }
  }
}